:020000040800F2
:1000000000000120C5020008CB020008CF02000852
:1000100041030008450300088D03000800000000AC
:10002000000000000000000000000000D5030008F0
:10003000D903000800000000DD030008E103000808
:10004000F1030008F1030008F1030008F1030008C0
:10005000F1030008F10300088D140008A91400083A
:10006000F1030008F1030008F1030008F1030008A0
:10007000F1030008F1030008F1030008F103000890
:10008000F1030008F1030008F1030008000000007C
:10009000000000000000000000000000F103000864
:1000A000F1030008F1030008F1030008F103000860
:1000B000F1030008F1030008F1030008F103000850
:1000C000F1030008F1030008F1030008611B0008B8
:1000D000F1030008891A0008511B00080000000005
:1000E000F1030008F1030008F1030008000000001C
:1000F000000000000000000000000000F103000804
:1001000000000000F1030008F1030008F1030008FB
:1001100000000000000000000000000000000000DF
:10012000F1030008F1030008F1030008F1030008DF
:10013000F1030008000000000000000000000000C3
:10014000000000000000000000000000F1030008B3
:10015000F1030008F1030008F1030008F1030008AF
:10016000F1030008F1030008000000000000000097
:10017000000000000000000000000000000000007F
:1001800000000000F1030008000000000000000073
:10019000F103000800B583B000F046FE384B394A41
:1001A0001360394A1360394900E02146384B9942BF
:1001B0000BD20A684B6801F10C0488689842F4D9A4
:1001C0001168196004330432F8E72E4B1A68314B7A
:1001D0009A4200D0FEE72C4B1A682F4B9A42F9D175
:1001E000274B2E4A13602E4A13602E4B05E0002049
:1001F000106004329342FAD80B462B4A934204D241
:10020000194651F8082B5B68F4E7244B1B6813B9B7
:10021000234B1B6803B1FEE701F0F0FF694601A81C
:1002200000F094FD214C224BE41AA4100025AC42AE
:1002300014DC204C204BE41AA4100025AC4213DC43
:100240000099019801F0E2FF05461C4C1C4BE41A92
:10025000A410002C0EDC284600F04AFD144B53F885
:10026000253098470135E2E7134B53F8253098477E
:100270000135E3E7013C124B53F824309847E8E797
:10028000BABADECA0000002078000020F40300089B
:100290000C04000878563412325476987C00002002
:1002A000440100200C0400081C0400081C04000881
:1002B0001C0400081C0400081C0400081C0400089E
:1002C0001C04000808B5FFF765FF00BEFEE71EF03E
:1002D000040F0CBFEFF30880EFF309807146414A29
:1002E00010472DE9F04182B004468846124B5E6B00
:1002F0009F6B9D6A1B6B13F0020F03D00E4BDB6AE2
:10030000002B0CDB0D4800F033FDCDF800803B46A0
:1003100032462946204600F093FD00BEFEE74BF62C
:10032000AB6100F007FE0028ECD0034B4FF0004219
:10033000DA6202B0BDE8F08100ED00E0A835000807
:1003400000BEFEE71EF0040F0CBFEFF30880EFF3D2
:1003500009807146244A10472DE9F04182B00446D5
:100360008846084B5E6B9F6B9D6A074800F000FD56
:10037000CDF800803B4632462946204600F060FD1D
:1003800000BEFEE700ED00E0B83500081EF0040FE7
:100390000CBFEFF30880EFF309807146134A104752
:1003A0002DE9F04182B004468846084B5E6B9F6B96
:1003B0009D6A074800F0DCFCCDF800803B463246E1
:1003C0002946204600F03CFD00BEFEE700ED00E0BF
:1003D000C435000800BEFEE700BEFEE700BEFEE733
:1003E00070470000E302000859030008A103000859
:0403F00000BEFEE766
:1003F400F0360008000000207C000020F0360008E1
:1004040000000010000000107C00002048010020C3
:080414000000001000000010C0
:1004200010B50446074B1868074BA3FB0030800942
:1004300000F090F8002221464FF0FF3000F044F821
:10044000002010BD0C000020D34D621008B50B4BEE
:100450001A6842F400721A601A6842F480621A60E4
:100460001A6842F480721A60032000F00FF80F201F
:10047000FFF7D6FF02F02CFB002008BD003C024035
:10048000014B1868704700BF2C01002010B50446CE
:10049000C31E042B0FD80A4AD36823F4E0631B045D
:1004A0001B0C240204F4E064234343F0BF6343F4D1
:1004B0000033D36010BDA421024800F04FFCEAE7EE
:1004C00000ED00E0D833000870B505460C4616462E
:1004D0000F2A25D80F2C28D81B4BDB68C3F3022327
:1004E000C3F10702042A28BF0422191D062921D9B5
:1004F000033B4FF0FF3101FA02F224EA02049C4070
:1005000001FA03F326EA03063443002D14DB240129
:10051000E4B205F1604505F5614585F8004370BD1D
:10052000BC210A4800F01AFCD4E7BD21074800F0BE
:1005300015FCD1E70023DCE705F00F052401E4B248
:10054000034B5C55EBE700BF00ED00E0D83300083B
:1005500014ED00E00138B0F1807F0AD2064B5860FC
:10056000064AF02182F823100020986007221A60C2
:1005700070470120704700BF10E000E000ED00E090
:1005800010B50446042800D038B9042C0BD0094A11
:10059000136823F00403136010BD40F2B311064842
:1005A00000F0DCFBF1E7034A136843F00403136037
:1005B000F2E700BF10E000E0D833000830B583B0A8
:1005C000044603680F2B29D8236813F0010F3DD090
:1005D0006368012B01D9052B25D1A34B9B6803F040
:1005E0000C03042B29D0A04B9B6803F00C03082BB1
:1005F0001ED022799D4B1A706368002B50D0FFF7F4
:100600003FFF0546984B1B6813F4003F1ED1FFF7D0
:1006100037FF401B6428F5D90320E3E1F521944816
:1006200000F09CFBD0E7FA21914800F097FBD4E75B
:100630008D4B5B6813F4800FDBD08B4B1B6813F47E
:10064000003F03D06368002B00F0C981236813F0DA
:10065000020F5DD0E368012B31D823691F2B34D8FA
:10066000814B9B6813F00C0F3AD07F4B9B6803F0D3
:100670000C03082B2FD0E368002B74D07D4B012294
:100680001A60FFF7FDFE0546774B1B6813F0020F5B
:100690005AD1FFF7F5FE401B0228F5D90320A1E14E
:1006A000FFF7EEFE0546704B1B6813F4003FCDD0FC
:1006B000FFF7E6FE401B6428F5D9032092E14FF4D2
:1006C00096716B4800F04AFBC7E740F22D1168486D
:1006D00000F044FBC4E7644B5B6813F4800FCAD19D
:1006E000614B1B6813F0020F04D0E368012B01D0AB
:1006F000012077E15C48036823F0F8032169F822C0
:1007000092FAA2F2B2FA82F201FA02F21343036001
:10071000236813F0080F50D06369012B35D8636943
:10072000002B38D0544B01221A60FFF7A9FE054672
:100730004D4B5B6F13F0020F3FD1FFF7A1FE401B43
:100740000228F5D903204DE14748036823F0F80358
:100750002169F82292FAA2F2B2FA82F201FA02F2C6
:1007600013430360D4E7434B00221A60FFF788FE6F
:1007700005463D4B1B6813F0020FC9D0FFF780FE02
:10078000401B0228F5D903202CE140F26D113848B6
:1007900000F0E4FAC3E7384B00221A60FFF770FE5E
:1007A0000546314B5B6F13F0020F06D0FFF768FE72
:1007B000401B0228F5D9032014E1236813F0040F2D
:1007C00060D0A368012B01D9052B1FD10023019311
:1007D000254B1A6C42F080521A641B6C03F0805354
:1007E0000193019B254A136843F480731360FFF75C
:1007F00047FE0546214B1B6813F4807F0CD1FFF7A1
:100800003FFE401B0228F5D90320EBE040F2971190
:10081000174800F0A3FAD9E7227A194B1A70A36897
:1008200083B1FFF72DFE05460F4B1B6F13F0020F30
:1008300028D1FFF725FE401B41F288339842F3D9B7
:100840000320CFE0FFF71CFE0546074B1B6F13F09C
:10085000020F17D0FFF714FE401B41F28833984275
:10086000F3D90320BEE000BF003802400238024046
:100870001C34000800004742800E474200700040D0
:1008800070380240A369022B39D8A369002B00F00D
:10089000A880564A926802F00C02082A00F0A48050
:1008A000022B40F08880E36913B1B3F5800F2CD19F
:1008B000236A3F2B2FD8636A323BB3F5BF7F30D812
:1008C000A36A022B05D0042B03D0062B01D0082BE2
:1008D0002DD1E36A043B0B2B2FD8454B00221A6025
:1008E000FFF7CEFD0546414B1B6813F0007F2AD071
:1008F000FFF7C6FD401B0228F5D9032072E04FF434
:10090000E6713C4800F02AFABFE740F2D5113948B9
:1009100000F024FACCE74FF4EB71364800F01EFAF1
:10092000C9E740F2D711334800F018FAC8E74FF48E
:10093000EC71304800F012FACBE740F2D9112D48A3
:1009400000F00CFAC9E7E369226A1343616A47F6CB
:10095000C07292FAA2F2B2FA82F201FA02F21343E0
:10096000A26A5208013A4FF4403191FAA1F1B1FA6A
:1009700081F18A401343E16A4FF0706292FAA2F269
:10098000B2FA82F201FA02F21343184A5360184B8A
:1009900001221A60FFF774FD0446144B1B6813F024
:1009A000007F06D1FFF76CFD001B0228F5D903205C
:1009B00018E0002016E00E4B00221A60FFF760FDE1
:1009C00004460A4B1B6813F0007F06D0FFF758FD62
:1009D000001B0228F5D9032004E0002002E00120DA
:1009E00000E0002003B030BD0120FBE700380240EA
:1009F000600047421C340008214B9B6803F00C0345
:100A0000042B3AD0082B01D01E4870471C4B586865
:100A100000F03F005B6813F4800F1ED01A4AB2FB4F
:100A2000F0F2174B586847F6C073184093FAA3F3D7
:100A3000B3FA83F3D84000FB02F0114B5B6803F478
:100A400040334FF4403292FAA2F2B2FA82F2D3402B
:100A500001335B00B0FBF3F070470A4AB2FBF0F2DF
:100A6000074B586847F6C073184093FAA3F3B3FADC
:100A700083F3D84000FB02F0DFE70348704700BF74
:100A8000003802400024F40040787D0170B504462F
:100A90000D460368013B0E2B11D8072D15D88C4B42
:100AA0001B6803F00F03AB4215D2EBB2884A1370F8
:100AB000136803F00F03AB420DD0012070BD40F26C
:100AC0003721844800F04AF9E7E74FF40E71814876
:100AD00000F044F9E3E7236813F0020F18D0A3688D
:100AE0007BB1802B0DD0902B0BD0A02B09D0B02B3D
:100AF00007D0C02B05D0D02B03D0E02B01D0F02B9A
:100B000037D1754A936823F0F003A1680B439360D3
:100B1000236813F0010F73D06368032B2FD8636829
:100B2000012B32D09A1E012A36D96B4A126812F074
:100B3000020F00F0CA8068498A6822F0030213435A
:100B40008B60FFF79DFC06466368012B2BD0022BC0
:100B500038D0032B45D0604B9B6813F00C0F4FD05F
:100B6000FFF78EFC801B41F288339842F3D90320B3
:100B7000A4E740F24F21574800F0F0F8C1E740F2F7
:100B80005621544800F0EAF8C9E7534A126812F4B3
:100B9000003FD0D1012091E74F4A126812F0007F48
:100BA000C9D101208AE74C4B9B6803F00C03042B4E
:100BB00026D0FFF765FC801B41F288339842F2D9BA
:100BC00003207BE7444B9B6803F00C03082B17D0F2
:100BD000FFF756FC801B41F288339842F2D903207C
:100BE0006CE73D4B9B6803F00C030C2B08D0FFF720
:100BF00047FC801B41F288339842F2D903205DE71D
:100C0000334B1B6803F00F03AB4209D9EAB2304BF8
:100C10001A701B6803F00F03AB4201D001204DE7AF
:100C2000236813F0040F14D0E3685BB1B3F5805F61
:100C300008D0B3F5A05F05D0B3F5C05F02D0B3F51F
:100C4000E05F36D1244A936823F4E053E1680B4314
:100C50009360236813F0080F15D023695BB1B3F5D7
:100C6000805F08D0B3F5A05F05D0B3F5C05F02D0B8
:100C7000B3F5E05F23D1184A936823F460432169F8
:100C800043EAC1039360FFF7B7FE134B9B6803F081
:100C9000F003F02292FAA2F2B2FA82F2D3400F4AA3
:100CA000D35CD8400E4B18600F20FFF7B9FB002033
:100CB00004E74FF42D71074800F050F8C2E740F206
:100CC000BB21044800F04AF8D5E70120F6E600BF52
:100CD000003C02401C340008003802400C3400087C
:100CE0000C000020014B1868704700BF0C0000206A
:100CF000FEE7000008B5034800F052F80120FFF7B6
:100D0000F7FF00BF4C34000808B503460C4A1268D0
:100D10005AB10B4A1068033323F003030344094A12
:100D2000934206D8064A136008BD054A0649116079
:100D3000EFE701F0CFFE0C2303604FF0FF30F3E745
:100D40008000002000FC00204801002001230360F7
:100D5000014B0B60704700BF0400002008B50A4635
:100D60000146024800F004F8FFF7C4FF60340008B1
:100D70000FB400B583B004AB53F8042B019380216A
:100D8000064801F0E1FE002803DD0146034800F0BB
:100D900047F803B05DF804EB04B07047880000200A
:100DA00010B5044601F09CFE0146204600F038F8DC
:100DB0000121024800F034F810BD00BF24350008BE
:100DC0002DE9F04385B004460F4643560BB10E465D
:100DD0001EE0042528462146ABBE0446384605B031
:100DE000BDE8F08314F9011B04AA1A4402F8101C90
:100DF0000133AB42F6D304AA1344002203F8102CAB
:100E00004FF00408E94640464946ABBE8046761B93
:100E1000002EE3D03546102E28BF10250023E8E72A
:100E200008B5FFF7CDFF08BD08B500F093F8024AFA
:100E3000024B9A6008BD00BF0000000800ED00E012
:100E4000F8B504460D4617461E462748FFF790FFA3
:100E500021682648FFF78CFF61682548FFF788FF67
:100E6000A1682448FFF784FFE1682348FFF780FF6B
:100E700021692248FFF77CFF61692148FFF778FF6D
:100E8000A1692048FFF774FFE1691F48FFF770FF71
:100E90001E48FFF76DFF29461D48FFF769FF1D4CEF
:100EA000E16A1D48FFF764FF216B1C48FFF760FFF4
:100EB000E16B1B48FFF75CFF15F0800F0AD115F4BA
:100EC000004F0CD11748FFF753FF06991648FFF75C
:100ED0004FFFF8BD39461548FFF74AFFEFE73146A7
:100EE0001348FFF745FFEDE78C3400089C340008F9
:100EF000AC340008BC340008CC340008DC340008F2
:100F0000EC340008FC3400080C3500081C350008DF
:100F10002835000800ED00E03835000848350008A5
:100F200058350008883500089035000868350008F5
:100F30007835000883691A888A4201D000207047FA
:100F40000268033A012A03D8023383610120704703
:100F5000002070470C4B1A6842F001021A60002111
:100F600099601A6822F0847222F480321A60074A6B
:100F70005A601A6822F480221A60D960044B4FF03C
:100F800000629A60704700BF0038024010300024B1
:100F900000ED00E0224B9B6803F00C03042B14D0FF
:100FA000082B16D01BB11F4B1F4A1A6002E01D4BC5
:100FB0001D4A1A601A4B9B68C3F303131B4AD15C8A
:100FC000184A1368CB4013607047164B184A1A60D2
:100FD000F0E7134B5A685B6803F03F0312F4800F8D
:100FE00013D0134AB2FBF3F20D4B5B68C3F38813C3
:100FF00003FB02F30A4A5268C2F301420132520073
:10100000B3FBF2F3074A1360D4E7074AB2FBF3F2EB
:10101000034B5B68C3F3881303FB02F3EAE700BFEB
:10102000003802400C0000200024F400D4350008F1
:1010300040787D0108B501220C21104600F088FAA5
:1010400001220D21104600F083FA01220E211046E4
:1010500000F07EFA01220F21104600F079FA0122F9
:101060000C21104600F086FB01220D21104600F0F5
:1010700081FB01220E21104600F07CFB01220F2192
:10108000104600F077FB00220121084600F060FACC
:1010900000220221012000F05BFA0022032101203E
:1010A00000F056FA01221146104600F02BFB0122F7
:1010B0000221104600F026FB01220321104600F019
:1010C00021FB08BD2DE9F0414FF0540800261EE039
:1010D0002546022D14D86C1CE4B22146012000F0F4
:1010E000ADFB0028F4D106EB4602104B134413F875
:1010F00005802146012000F0A1FB0028F9D0E7E798
:1011000001223946104600F035FB0136F6B2032EB7
:1011100009D806F10C07FFB200223946012000F081
:1011200029FB0025D5E74046BDE8F081E4350008FD
:1011300010B5044601220821104600F009FA0122E8
:101140000821104600F016FB01220721104600F08E
:10115000FFF9E2090721012000F00CFB0122062122
:10116000104600F0F5F9C4F380120621012000F0CA
:1011700001FB01220521104600F0EAF9C4F34012F8
:101180000521012000F0F6FA01220421104600F0AA
:10119000DFF9C4F300120421012000F0EBFA012270
:1011A0000921104600F0D4F901220921104600F06F
:1011B000E1FA012000F00AFD01220921104600F0A9
:1011C000C7F900220921012000F0D4FA012000F023
:1011D000FDFC01220721104600F0BAF9C4F3C00259
:1011E0000721012000F0C6FA01220621104600F076
:1011F000AFF9C4F380020621012000F0BBFA0122FE
:101200000521104600F0A4F9C4F340020521012095
:1012100000F0B0FA01220421104600F099F904F020
:1012200001020421012000F0A5FA01220921104643
:1012300000F08EF901220921104600F09BFA0120EE
:1012400000F0C4FC01220921104600F081F90022BF
:101250000921012000F08EFA012000F0B7FC10BD3A
:1012600010B5044601220821104600F071F9002251
:101270000821012000F07EFA01220721104600F02B
:1012800067F9E2090721012000F074FA0122062122
:10129000104600F05DF9C4F380120621012000F031
:1012A00069FA01220521104600F052F9C4F34012F8
:1012B0000521012000F05EFA01220421104600F011
:1012C00047F9C4F300120421012000F053FA01226F
:1012D0000921104600F03CF901220921104600F0D6
:1012E00049FA012000F072FC01220921104600F0A9
:1012F0002FF900220921012000F03CFA012000F022
:1013000065FC01220721104600F022F9C4F3C00257
:101310000721012000F02EFA01220621104600F0DC
:1013200017F9C4F380020621012000F023FA0122FC
:101330000521104600F00CF9C4F3400205210120FC
:1013400000F018FA01220421104600F001F904F01F
:1013500001020421012000F00DFA012209211046AA
:1013600000F0F6F801220921104600F003FA0120EE
:1013700000F02CFC01220921104600F0E9F80022BF
:101380000921012000F0F6F9012000F01FFC10BD3A
:1013900008B5FFF7CDFE08BD38B50546002403E0CB
:1013A000FFF7F6FF0134E4B2285D0028F8D138BD1C
:1013B00008B510B1012805D008BD41F08000FFF745
:1013C0004FFFF9E74039C8B2FFF74AFFF4E708B525
:1013D0000120FFF745FF012000F0F8FB08BD0000E9
:1013E00010B584B020B10446002805DB00221BE0C4
:1013F0003020FFF7CDFF24E044422D20FFF7C8FF47
:10140000F4E7114981FB0431E317C3EBA10318464C
:1014100003EB83035900631A303304A9114401F824
:101420000C3C0132D2B20446002CEAD107E0541E33
:1014300004AB234413F80C0CFFF7AAFFE2B2002A16
:10144000F5D104B010BD00BF6766666608B53220EE
:1014500000F0BCFB0220FFF703FF2820FFF700FF8E
:101460000C20FFF7FDFE012000F0B0FB0620FFF787
:10147000F7FE08BD014B1860704700BF080100204F
:10148000014B1860704700BF0C01002008B5044BE9
:101490001B689847034A536943F00103536108BD31
:1014A00008010020003C014008B5044B1B68984728
:1014B000034A536943F00203536108BD0C01002045
:1014C000003C0140012915D049B102291DD0144921
:1014D0000B68012202FA00F0184308607047104BB5
:1014E00099680122824011439960D96821EA020279
:1014F000DA60ECE70A4BD968012282401143D960D7
:10150000996821EA02029A60E1E7054A916801239D
:10151000834019439160D1680B43D360D7E700BF84
:10152000003C014030B4850800F003000F2303FAAB
:1015300000F2064C54F8253023EA0203814063EAA6
:10154000010344F8253030BC704700BF003801402B
:1015500010B4012812D018B102281DD010BC704759
:10156000144B1868490003248C4020EA04001860DA
:10157000186802FA01F101431960EFE70E4B186891
:10158000490003248C4020EA04001860186802FA1D
:1015900001F101431960E1E7084B18684900032491
:1015A0008C4020EA04001860186802FA01F1014337
:1015B0001960D3E700000240000402400008024026
:1015C00007291DD801280BD010B1022810D0704770
:1015D0001E48036A890002FA01F11943016270474B
:1015E0001B48036A890002FA01F11943016270473E
:1015F0001848036A890002FA01F119430162704731
:1016000010B401280ED018B1022815D010BC7047B4
:101610000E4C606A01F007039B0002FA03F10143DC
:101620006162F3E70A4C606A01F007039B0002FA6B
:1016300003F101436162E9E70648436A01F00701EB
:10164000890002FA01F119434162DFE7000002401C
:10165000000402400008024030B401281CD018B138
:10166000022831D030BC70472348446801258D40A2
:1016700024EA0504446044688A4022434260826848
:101680004C000321A14022EA01028260826803FA31
:1016900004F111438160E5E71848446801258D4055
:1016A00024EA0504446044688A4022434260846816
:1016B0004A000321914024EA01018160846803FA11
:1016C00002F121438160CDE70D48446801258D403A
:1016D00024EA0504446044688A40224342608268E8
:1016E000490003248C4022EA04028260826803FAE3
:1016F00001F111438160B5E700000240000402409F
:101700000008024010B4012812D018B102281DD0E0
:1017100010BC7047144BD868490003248C4020EA61
:101720000400D860D86802FA01F10143D960EFE7FC
:101730000E4BD868490003248C4020EA0400D8608E
:10174000D86802FA01F10143D960E1E7084BD86893
:10175000490003248C4020EA0400D860D86802FACB
:1017600001F10143D960D3E70000024000040240C8
:101770000008024010B4012810D018B1022819D076
:1017800010BC7047114B586901248C4020EA0400BA
:10179000586158698A4002435A61F1E70C4B586915
:1017A00001248C4020EA0400586158698A400243B1
:1017B0005A61E5E7074B586901248C4020EA040090
:1017C000586158698A4002435A61D9E700000240D3
:1017D000000402400008024001280FD010B1022886
:1017E00019D07047124B5869012202FA01F120EA20
:1017F000010058615A695140596170470D4842696A
:10180000012303FA01F122EA01024261084A536905
:1018100059405161704708484269012303FA01F1B8
:1018200022EA01024261024A5369594051617047FC
:1018300000000240000402400008024001280AD0D3
:1018400018B102280DD000207047094B1869C84014
:1018500000F001007047074B1869C84000F0010014
:101860007047054B1869C84000F00100704700BF81
:10187000000002400004024000080240420900F05B
:101880001F00012303FA00F0014B43F822007047C8
:1018900000E100E0430900F01F00012202FA00F01D
:1018A0002033024A42F82300704700BF00E100E005
:1018B000430900F01F008033034A52F8233023FA13
:1018C00000F000F00100704700E100E01E4B1B78C3
:1018D000033B042B36D8DFE803F0030C17222D005E
:1018E0000A01D2B200F1604000F5614080F80023A7
:1018F0007047120142EA4112D2B200F1604000F595
:10190000614080F800237047120142EA8112D2B28E
:1019100000F1604000F5614080F80023704712013B
:1019200042EAC112D2B200F1604000F5614080F895
:10193000002370471201D2B200F1604000F561400F
:1019400080F80023704700BF34010020054B187059
:10195000054B064A1A60000240F0BF6040F40030B8
:10196000186070473401002000ED00E00000FA0527
:10197000114A136843F0010313600F4B1B6813F007
:10198000020FFAD00C4B9A6822F001029A609A6812
:1019900022F002029A609A6822F010029A609A6815
:1019A00022F020029A609A6822F040029A609A68B7
:1019B00022F080029A60704700380240032822D843
:1019C000DFE800F0020A121A0F48036B012202FA44
:1019D00001F11943016370470B48436B012202FA7E
:1019E00001F11943416370470748036C012202FA71
:1019F00001F11943016470470348436C012202FA64
:101A000001F119434164704700380240134BDA6812
:101A100022F40042DA60DA6822F48052DA60DA688E
:101A200022F48062DA601A6922F480521A611A691B
:101A300022F400521A6140F283629A60DA6842F03E
:101A40000802DA60DA6842F00402DA60DA6842F02A
:101A50002002DA6000221A60704700BF00100140C7
:101A6000054AD36843F40053D360A2F54C42D368CF
:101A700043F40053D36070470010014008B1014A9D
:101A8000106070471401002008B5024B1B6803B1B9
:101A9000984708BD1401002010B50446142000F03A
:101AA00095F8044B5C60034B1B6813F0800FFAD071
:101AB00010BD00BF00100140044B1B6813F0200F45
:101AC000FAD0024B5868C0B2704700BF0010014006
:101AD000154BDA6822F40042DA60DA6822F48052A8
:101AE000DA60DA6822F48062DA60DA6822F400727E
:101AF000DA601A6922F480521A611A6922F40052DB
:101B00001A6140F283629A60DA6842F00802DA6091
:101B1000DA6842F00402DA60DA6842F02002DA6041
:101B200000221A60704700BF00440040044B1B684D
:101B300013F0200FFAD0024B5868C0B2704700BFB4
:101B40000044004008B1014A1060704710010020B5
:101B500008B5024B1B6803B1984708BD100100206F
:101B600008B5024B1B68984708BD00BF180100204C
:101B7000024A136823F004031360704710E000E08A
:101B8000012806D020B9064A136823F00203136027
:101B90007047034A136843F002031360704700BFA5
:101BA00010E000E0044B00229A6058601A6842F08E
:101BB00001021A60704700BF10E000E0024B186895
:101BC000C0F30040704700BF10E000E010B50446CD
:101BD0000020FFF7D5FF4FF4FA6000FB04F0FFF799
:101BE000E1FFFFF7EBFF0028FBD010BD08B5002197
:101BF0000846FFF7DDFB1048FFF7CEFB0021012070
:101C0000FFF7D6FB0D48FFF7C7FB0B210120FFF7BD
:101C1000CFFBFFF757FA5428E9D0094B1870FFF7AC
:101C2000B7FB4FF4FA60FFF7D1FFFFF7D0FB4FF49B
:101C30007A70FFF7CBFF08BD0436000814360008A1
:101C40001C01002008B501E0834228D0002108468D
:101C5000FFF7AEFB1A48FFF79FFB00210120FFF7BB
:101C6000A7FB1848FFF798FB0B210120FFF7A0FB0B
:101C7000FFF728FA144B1B788342E5D05428E3D0B1
:101C8000124B1870FFF784FB4FF4FA60FFF79EFFCA
:101C9000FFF79DFB4FF47A70FFF798FF08BDFFF741
:101CA00096FBC820FFF792FF05210020FFF780FB7D
:101CB0000748FFF771FB4FF47A70FFF787FFC5E71E
:101CC00020360008143600081C0100201D010020E9
:101CD0003436000808B507E0834200F09880544B82
:101CE0001B78834200F0938000210846FFF760FBD9
:101CF0005048FFF751FB00210120FFF759FB4E48E8
:101D0000FFF74AFB0B210120FFF752FBFFF7DAF93F
:101D10004A4B1B788342DFD0454A12788242DBD09F
:101D20005428D9D0464B1870FFF732FB4FF4FA60B5
:101D3000FFF74CFFFFF74BFB4FF47A70FFF746FFBE
:101D40004048FFF729FB4FF4FA70FFF73FFF0821E7
:101D50000020FFF72DFB2E20FFF71AFB4FF4FA703F
:101D6000FFF734FF09210020FFF722FB2E20FFF7A9
:101D70000FFB4FF4FA70FFF729FF0A210020FFF74D
:101D800017FB2E20FFF704FB4FF4FA60FFF71EFF4E
:101D900000210120FFF70CFB2B48FFF7FDFA4FF461
:101DA000FA60FFF713FFFFF712FBC820FFF70EFFE3
:101DB00005210020FFF7FCFA2448FFF7EDFA4FF465
:101DC000FA60FFF703FFFFF702FBC820FFF7FEFEF4
:101DD00000210846FFF7ECFA1D48FFF7DDFA08215D
:101DE0000020FFF7E5FA1B4B1878FFF7F9FA0021FE
:101DF0000120FFF7DDFA1848FFF7CEFA082101208D
:101E0000FFF7D6FA154B1878FFF7EAFA08BDFFF787
:101E1000DEFAC820FFF7DAFE05210020FFF7C8FA36
:101E20000F48FFF7B9FA4FF47A70FFF7CFFE5BE780
:101E30001D01002040360008143600081C01002057
:101E40001E0100205036000858360008643600088D
:101E50006C3600083C010020743600081000002099
:101E60003436000808B505210020FFF7A1FA0D4817
:101E7000FFF792FA00210120FFF79AFA0A48FFF7CC
:101E80008BFA4CF25030FFF7A1FEFFF7A0FAC82002
:101E9000FFF79CFEFFF7AAFEFFF7D4FEFFF71AFF3D
:101EA00008BD00BF64360008F035000808B50222FE
:101EB00009210020FFF74CFB02220A210020FFF736
:101EC00047FB072209210020FFF77AFB07220A219E
:101ED0000020FFF775FB022211460020FFF738FBB8
:101EE000022203210020FFF733FB072202210020FA
:101EF000FFF766FB072203210020FFF761FBFFF7D6
:101F000085FDFFF7E5FDFFF7ABFD08BD08B5032034
:101F1000FFF71CFD002202212520FFF7D7FC00223D
:101F200001212620FFF7D2FC002203210620FFF723
:101F3000CDFC002204210720FFF7C8FC2520FFF775
:101F40009DFC2620FFF79AFC2520FFF7B1FC2620F8
:101F5000FFF7AEFC002211461046FFF7F9FA012206
:101F600000210846FFF7CEFB002201211046FFF7B3
:101F7000EFFA012211460020FFF7C4FB00210846BA
:101F8000FFF7D0FA02210020FFF79CFA0021012080
:101F9000FFF7C8FA02210120FFF794FA0648FFF77D
:101FA00069FA0648FFF76CFA0548FFF767FD054830
:101FB000FFF7C8FD08BD00BF7D260008B92A00084C
:101FC000212200089526000808B5FFF7D1FC002162
:101FD0000846FFF7F3FC01210020FFF7EFFC042186
:101FE0000320FFF7EBFC11210220FFF7E7FC0E2195
:101FF0000320FFF7E3FCFFF7BBFDFFF727FAFFF72E
:1020000019F8FFF753FFFFF781FFFFF72BFF08BD1C
:1020100008B5012204210020FFF79AFA00231A468E
:1020200004211846FFF718FB012204210020FFF7C6
:10203000A1FB08BD08B5012204210020FFF788FAA2
:1020400000231A4604211846FFF706FB002204214C
:102050001046FFF78FFB08BD08B5012205210020BF
:10206000FFF776FA00231A4605211846FFF7F4FA1F
:10207000012205210020FFF77DFB08BD08B50122E4
:1020800005210020FFF764FA00231A4605211846AF
:10209000FFF7E2FA002205211046FFF76BFB08BDAF
:1020A00008B501220A211046FFF752FA00231A460A
:1020B0000A210120FFF7D0FA08BD10B5044610B17F
:1020C000012C0FD010BD01220A211046FFF752FB50
:1020D0004FF4FA70FFF77AFD00220A210120FFF782
:1020E00049FBEDE701220A211046FFF743FB4FF4BD
:1020F000BA60FFF76BFD00220A210120FFF73AFBCF
:10210000E0E708B5012200211046FFF721FA02237B
:10211000002211460120FFF79FFA08BD10B50446C2
:1021200010B1012C0FD010BD012200211046FFF785
:1021300021FB4FF4FA70FFF749FD00221146012000
:10214000FFF718FBEDE7012200211046FFF712FB15
:102150004FF4FA70FFF73AFD002211460120FFF715
:1021600009FBE0E770B594B000240194204B1A6C91
:1021700042F080521A641B6C03F080530193019B60
:1021800002941C4B1A6842F440421A601B6803F424
:1021900040430293029B0123089309934FF4800369
:1021A0000F93192310934FF4A873119304261296DA
:1021B0000723139302250E9508A8FEF7FFF90F23B6
:1021C0000393049505944FF480530693079429468E
:1021D00003A8FEF75BFCFEF785FD074BA3FB003071
:1021E0008009FEF7B7F93046FEF7CAF914B070BDA2
:1021F0000038024000700040D34D621008B5FEF771
:1022000025F9FFF7AFFFFEF7C5FE08BD08B5FFF7DC
:10221000DBFEFFF77BFEFFF743FFFFF772FFFEE7F2
:1022200038B5FFF749FCC14B1870C14B1B68032B35
:1022300003DDC04B1B68002B5FDBBC4B1B78BE4A29
:102240001278934207D0BD4909788B4203D0BC492C
:1022500009788B420FD193425FD0B44B1A78B74BB9
:102260001B789A4200F0E080B04B1A78B44B1B7890
:102270009A4200F07581AD4B1B78AF4A12789342B9
:102280003AD0AE4A1278934236D0AD4A1278934291
:1022900032D0FFF79CF8C820FFF798FC00210846D1
:1022A000FFF786F8A748FFF777F84FF4FA60FFF7D3
:1022B0008DFCFFF78CF8C820FFF788FC002108464A
:1022C000FFF776F8A048FFF767F808210020FFF72E
:1022D0006FF8974B1868FFF783F800210120FFF78C
:1022E00067F89A48FFF758F808210120FFF760F8CF
:1022F000904B1868FFF774F838BDFFF768F8C820EE
:10230000FFF764FC00210846FFF752F89048FFF7FA
:1023100043F80620FFF7BEFA8FE78E4B1B783BB1E0
:102320008C4B1B78012B43D08A4B01221A7094E707
:102330003120FFF7B1FBFFF76BFEFFF79FFE7C4DEF
:102340002B6801332B607B4C2368013B2360062004
:10235000FFF794FA00210846FFF7E4F80221002075
:10236000FFF7B0F84FF4FA60FFF730FCFFF72FF8F3
:10237000C820FFF72BFC00210846FFF719F8724828
:10238000FFF70AF808210020FFF712F82868FFF786
:1023900027F800210120FFF70BF86C48FEF7FCFF3F
:1023A00008210120FFF704F82068FFF719F8B7E7C4
:1023B000FFF70DF8C820FFF709FC00210846FEF7DB
:1023C000F7FF6548FEF7E8FF0620FFF763FA0122F2
:1023D00000211046FFF7CEF94FF4FA60FFF7F6FB45
:1023E000FEF7F5FFC820FFF7F1FB00210846FEF7D6
:1023F000DFFF5548FEF7D0FF08210020FEF7D8FF89
:102400004B4B1868FEF7ECFF00210120FEF7D0FFD0
:102410004E48FEF7C1FF08210120FEF7C9FF454BDA
:102420001868FEF7DDFF7FE74C4B1B783BB14B4B49
:102430001B78012B43D0494B01221A7014E731203D
:10244000FFF72AFBFFF7E4FDFFF718FE384D2B6876
:1024500001332B60374C2368013B23600620FFF7D4
:102460000DFA00210846FFF75DF802210020FFF772
:1024700029F84FF4FA60FFF7A9FBFEF7A8FFC82080
:10248000FFF7A4FB00210846FEF792FF2E48FEF757
:1024900083FF08210020FEF78BFF2868FEF7A0FFCE
:1024A00000210120FEF784FF2848FEF775FF082170
:1024B0000120FEF77DFF2068FEF792FFB7E7FEF7E9
:1024C00086FFC820FFF782FB00210846FEF770FF59
:1024D0002148FEF761FF0620FFF7DCF94FF4FA60B0
:1024E000FFF774FBFEF773FFC820FFF76FFB0021B7
:1024F0000846FEF75DFF1448FEF74EFF0821002056
:10250000FEF756FF0A4B1868FEF76AFF002101200C
:10251000FEF74EFF0D48FEF73FFF08210120FEF7B2
:1025200047FF044B1868FEF75BFF84E73901002082
:102530003C010020100000201C0100201D01002093
:102540001E0100209C3600086C3600087436000816
:102550007C3600081F0100208C3600082001002076
:10256000404B1B783BB13F4B1B78012B43D03D4B7D
:1025700001221A707FE63120FFF78EFAFFF748FD3F
:10258000FFF77CFD384D2B6801332B60374C2368F7
:10259000013B23600620FFF771F900210846FEF792
:1025A000C1FF02210020FEF78DFF4FF4FA60FFF714
:1025B0000DFBFEF70CFFC820FFF708FB00210846C3
:1025C000FEF7F6FE2A48FEF7E7FE08210020FEF798
:1025D000EFFE2868FEF704FF00210120FEF7E8FE69
:1025E0002448FEF7D9FE08210120FEF7E1FE20680D
:1025F000FEF7F6FEB7E7FEF7EAFEC820FFF7E6FAB9
:1026000000210846FEF7D4FE1B48FEF7C5FE062053
:10261000FFF740F94FF4FA60FFF7D8FAFEF7D7FE5C
:10262000C820FFF7D3FA00210846FEF7C1FE104884
:10263000FEF7B2FE08210020FEF7BAFE0A4B18682A
:10264000FEF7CEFE00210120FEF7B2FE0948FEF79C
:10265000A3FE08210120FEF7ABFE044B1868FEF72D
:10266000BFFE84E7210100203C0100201000002073
:102670006C360008743600088C36000808B50A214C
:102680000120FFF7DBF8FFF718FD0A210120FFF713
:10269000A3F808BD38B5FFF749FAB94B1870B94B24
:1026A0001B78984207D0B84A1278904203D0B74AB4
:1026B000127890420FD198424FD0B14B1A78B24B5A
:1026C0001B789A4200F0CC80AD4B1A78AF4B1B7848
:1026D0009A4200F04881AA4B1B78AA4A127893428A
:1026E0003AD0A94A1278934236D0A84A1278934237
:1026F00032D0FEF76CFEC820FFF768FA00210846CA
:10270000FEF756FEA248FEF747FE4FF4FA60FFF7C9
:102710005DFAFEF75CFEC820FFF758FA0021084674
:10272000FEF746FE9B48FEF737FE08210020FEF725
:102730003FFE994B1868FEF753FE00210120FEF77B
:1027400037FE9648FEF728FE08210120FEF730FEEE
:10275000934B1868FEF744FE38BD924B1B78012B53
:1027600007D0904B1B78002B43D08E4B00221A7061
:10277000A3E73120FFF790F9FFF75CFCFFF76CFC53
:10278000854D2B68013B2B60854C2368013323600A
:102790000720FFF773F800210120FEF7C3FE022196
:1027A0000120FEF78FFE4FF4FA60FFF70FFAFEF7F5
:1027B0000EFEC820FFF70AFA00210846FEF7F8FDD2
:1027C0007448FEF7E9FD08210020FEF7F1FD2868B6
:1027D000FEF706FE00210120FEF7EAFD6F48FEF736
:1027E000DBFD08210120FEF7E3FD2068FEF7F8FD80
:1027F000B7E7FEF7ECFDC820FFF7E8F9002108462F
:10280000FEF7D6FD6848FEF7C7FD0720FFF742F840
:102810004FF4FA60FFF7DAF9FEF7D9FDC820FFF7A9
:10282000D5F900210846FEF7C3FD5A48FEF7B4FD6E
:1028300008210020FEF7BCFD574B1868FEF7D0FDBD
:1028400000210120FEF7B4FD5448FEF7A5FD082144
:102850000120FEF7ADFD524B1868FEF7C1FD84E77D
:10286000524B1B78012B07D0504B1B78002B43D0C9
:102870004E4B00221A7027E73120FFF70DF9FFF7C2
:10288000D9FBFFF7E9FB444D2B68013B2B60444C1F
:102890002368013323600720FEF7F0FF00210120A9
:1028A000FEF740FE02210120FEF70CFE4FF4FA6015
:1028B000FFF78CF9FEF78BFDC820FFF787F90021A1
:1028C0000846FEF775FD3348FEF766FD0821002037
:1028D000FEF76EFD2868FEF783FD00210120FEF75C
:1028E00067FD2E48FEF758FD08210120FEF760FD28
:1028F0002068FEF775FDB7E7FEF769FDC820FFF712
:1029000065F900210846FEF753FD2748FEF744FD10
:102910000720FEF7BFFF4FF4FA60FFF757F9FEF705
:1029200056FDC820FFF752F900210846FEF740FD8A
:102930001848FEF731FD08210020FEF739FD164B3F
:102940001868FEF74DFD00210120FEF731FD134808
:10295000FEF722FD08210120FEF72AFD104B186822
:10296000FEF73EFD84E7124B1B78012B22D0104B63
:102970001B78002B5ED00E4B00221A70ABE600BF16
:10298000410100201C0100201D0100201E0100202B
:102990009C3600086C3600083C01002074360008A4
:1029A000100000201F010020AC360008200100208C
:1029B000210100203120FFF76FF8FFF73BFBFFF705
:1029C0004BFB384D2B68013B2B60374C23680133A0
:1029D00023600720FEF752FF00210120FEF7A2FD31
:1029E00002210120FEF76EFD40F2DC50FFF7EEF809
:1029F000FEF7EDFCC820FFF7E9F800210846FEF7D6
:102A0000D7FC2A48FEF7C8FC08210020FEF7D0FCBE
:102A10002868FEF7E5FC00210120FEF7C9FC2448E8
:102A2000FEF7BAFC08210120FEF7C2FC2068FEF781
:102A3000D7FC9CE7FEF7CBFCC820FFF7C7F80021C6
:102A40000846FEF7B5FC1B48FEF7A6FC0720FEF77C
:102A500021FF4FF4FA60FFF7B9F8FEF7B8FCC82081
:102A6000FFF7B4F800210846FEF7A2FC0F48FEF776
:102A700093FC08210020FEF79BFC0A4B1868FEF728
:102A8000AFFC00210120FEF793FC0948FEF784FC0F
:102A900008210120FEF78CFC034B1868FEF7A0FC10
:102AA00069E700BF3C010020100000206C360008E0
:102AB00074360008AC36000808B500210120FEF786
:102AC000BDFEFFF72BFB00210120FEF785FE08BDB0
:102AD00070470000014B1868704700BF14000020C9
:102AE000034613F8012B002AFBD1181A013870474E
:102AF00030B5141E05469BB0184605DA8B232B60B3
:102B00004FF0FF301BB030BD4FF40273ADF80C3006
:102B100014BF04F1FF332346029305934FF6FF736E
:102B200000910491ADF80E3002461E9B694628467E
:102B300000F072F8431CBCBF8B232B60002CE1D04B
:102B4000009B00221A70DDE707B5009313460A4682
:102B5000014603480068FFF7CBFF03B05DF804FBB4
:102B6000140000202DE9F0478E689E4282460C46F4
:102B70009046994637D88A8912F4906F31D02568EB
:102B800009696F1A6569022305EB450595FBF3F5A5
:102B900009F101033B449D4238BF1D46530530D522
:102BA000294600F07FFB064650B90C23CAF80030D6
:102BB000A38943F04003A3814FF0FF30BDE8F087C5
:102BC0003A46216900F0FCFAA38923F4906343F0AC
:102BD0008003A381266165613E44ED1B2660A560EC
:102BE0004E464E4500D94E4632464146206800F0DA
:102BF000F2FAA3689B1BA36023681E442660002092
:102C0000DCE72A4600F0A8FB06460028E2D121694D
:102C1000504600F0F9FAC8E72DE9F04F9DB0804624
:102C200003938B891D060C4616460FD50B696BB9AD
:102C3000402100F037FB2060206128B90C23C8F840
:102C400000304FF0FF30C7E0402363610023099359
:102C500020238DF8293030238DF82A304FF0010BD6
:102C600037463D4615F8013B0BB1252B3ED1B7EB5E
:102C7000060A0BD05346324621464046FFF772FF04
:102C8000013000F0A480099B534409933B78002B4A
:102C900000F09D8000234FF0FF32CDE9052304931F
:102CA00007938DF853301A932F46052217F8011B0E
:102CB0004F4800F035FA049BD0B9D90644BF202212
:102CC0008DF853201A0744BF2B228DF853202A7801
:102CD0002A2A15D0079A2F4600200A25394611F8CE
:102CE000013B303B092B4DD9B8B10FE02F46B8E777
:102CF0003F4A801A0BFA00F0184304903D46D3E790
:102D0000039A111D12680391002A01DB079204E067
:102D1000524243F00203079204933B782E2B0CD1CE
:102D20007B782A2B33D1039B1A1D1B680392002B3F
:102D3000B8BF4FF0FF33023705932E4D3978032289
:102D4000284600F0EDF938B14023401B03FA00F0AB
:102D5000049B034301370493397827488DF82810E2
:102D600006227E1C00F0DCF9002838D0234B13BB70
:102D7000039B073323F0070308330393099B4B445A
:102D800009936DE705FB023201200F46A6E70023F9
:102D90000137059319460A25384610F8012B303AB9
:102DA000092A03D9002BC8D00591C6E705FB0121EC
:102DB00001230746F0E703AB00932246104B04A91A
:102DC0004046AFF30080B0F1FF3F8146D6D1A389E2
:102DD0005B063FF536AF09981DB0BDE8F08F03AB39
:102DE00000932246064B04A9404600F081F8EAE72A
:102DF000BC360008C2360008C636000800000000D5
:102E0000652B00082DE9F04791461F468A680B693B
:102E1000DDF820809342B8BF1346C9F8003091F81E
:102E2000432006460C4612B10133C9F8003023682E
:102E3000990642BFD9F800300233C9F8003025683E
:102E400015F0060507D104F1190AE368D9F8002046
:102E50009B1AAB4228DC94F843302268003318BF39
:102E6000012392062DD404F1430239463046C0476F
:102E7000013020D02368E568D9F8002003F006036C
:102E8000042B08BFAD1AA36822690CBF25EAE575BB
:102E900000259342C4BF9B1AED184FF000091A3465
:102EA0004D451AD1002008E00123524639463046EC
:102EB000C047013003D14FF0FF30BDE8F087013546
:102EC000C3E7E1185A1C302081F84300224494F8EB
:102ED000451082F843100233C5E7012322463946E4
:102EE0003046C0470130E6D009F10109D8E70000BB
:102EF0002DE9F04301F1430C0C46097E85B06E29A3
:102F00001746064698460C9A00F0B38022D86329EB
:102F100036D00AD8002900F0B980582900F0838003
:102F200004F1420584F8421032E0642901D0692995
:102F3000F6D120681368050603F104012AD51B6841
:102F40001160002B03DA2D225B4284F843206F4886
:102F50000A2239E0732900F09D8008D86F2920D01B
:102F60007029DDD1236843F02003236003E0752935
:102F700017D07829D4D1782384F84530644855E0B7
:102F80001368191D1B68116004F1420584F8423072
:102F900001238CE01B68116010F0400F18BF1BB2BA
:102FA000CFE713682568181D1060280601D51B6837
:102FB00002E06806FBD51B8854486F2914BF0A221B
:102FC0000822002184F843106568A560002DC0F236
:102FD0009580216821F004012160002B3DD1002D56
:102FE00040F08E806546082A0BD12368DB0708D5A0
:102FF000236962689A42DEBF302305F8013C05F17F
:10300000FF35ACEB05032361CDF800803B4603AAF6
:1030100021463046FFF7F6FE01304DD14FF0FF302C
:1030200005B0BDE8F083394884F84510136821687D
:103030001D1D1B6815600A060BD5CA0744BF41F069
:10304000200121601BB9226822F020022260102298
:10305000B7E74D0648BF9BB2EFE76546B3FBF2F119
:1030600002FB1133C35C05F8013D0B460029F5D185
:10307000B9E7136825686169181D106028061B6888
:1030800001D5196002E06A06FBD51980002323618F
:103090006546B9E71368191D11601D686268002153
:1030A000284600F03DF808B1401B6060636823616A
:1030B000002384F84330A7E723692A46394630467F
:1030C000C0470130AAD023689B0713D4E068039B54
:1030D0009842B8BF1846A3E701234A46394630460E
:1030E000C04701309AD00135E368039A9B1AAB427E
:1030F000F2DCEBE7002504F11909F5E7002BACD170
:10310000037884F8423004F142056CE7CD360008BC
:10311000DE36000800000000000000000000000093
:1031200001F0FF01102A2BDB10F0070F08D010F878
:10313000013B013A8B422DD010F0070F42B3F6D17C
:10314000F0B441EA012141EA014122F007047FF095
:1031500000070023F0E80256083C85EA010586EAEC
:10316000010685FA47F5A3FA87F586FA47F6A5FA28
:1031700087F68EB9EED1F0BC01F0FF0102F0070234
:1031800032B110F8013B013A83EA010313B1F8D1DF
:103190000020704701387047002D06BF35460338C0
:1031A000073815F0010F07D1013015F4807F02BFF9
:1031B000013015F4C03F0130F0BC0138704700BF4A
:1031C00010B5431E0A44914200D110BD11F8014BC5
:1031D00003F8014FF7E7884210B501EB020307D867
:1031E000421E99420AD011F8014B02F8014FF8E74C
:1031F0008342F5D98118D21AD34200D110BD13F8F9
:10320000014D01F8014DF7E738B50546002945D0D5
:1032100051F8043C0C1F002BB8BFE41800F0D2F8A2
:103220001F4A1368104633B9636014602846BDE82E
:10323000384000F0C8B8A3420CD921686218934204
:1032400004BF1A685B68636004BF521822600460A0
:10325000ECE713465A680AB1A242FAD9196858181D
:10326000A0420BD120680144581882421960DDD178
:10327000106852685A6001441960D7E702D90C23DC
:103280002B60D3E7206821188A4204BF1168526876
:10329000626004BF091821605C60C7E738BD00BFE9
:1032A0002401002070B5CD1C25F0030508350C2D38
:1032B00038BF0C25002D064601DBA94203D90C239B
:1032C0003360002070BD00F07DF8214A146821466B
:1032D00091B9204C23681BB9304600F063F8206098
:1032E0002946304600F05EF8431C24D10C2333609D
:1032F000304600F068F8E4E70B685B1B18D40B2B32
:103300000FD90B60CD50CC18304600F05CF804F1BA
:103310000B00231D20F00700C31AD3D05A42E250FD
:10332000D0E78C424B6816BF636013600C46EBE736
:103330000C464968CCE7C41C24F00304A04205D025
:10334000211A304600F02EF80130CFD02560DBE79F
:103350002401002028010020F8B5074614460E4637
:1033600021B91146BDE8F840FFF79CBF22B9FFF72D
:103370004BFF25462846F8BD00F026F8A0420FD2A4
:1033800021463846FFF78EFF05460028F2D0314629
:103390002246FFF715FF31463846FFF735FFE9E7CC
:1033A0003546E7E738B5064C002305460846236056
:1033B000FDF7AAFC431C02D1236803B12B6038BD82
:1033C000300100207047704751F8043C181F002B53
:1033D000BCBF0B58C01870472E2E2F7379737465BD
:1033E0006D2F7372632F73746D333266342D686181
:1033F0006C2F73746D3332663478785F68616C5FFC
:10340000636F727465782E63000000000000000096
:103410000102030401020304060708092E2E2F737C
:10342000797374656D2F7372632F73746D333266A5
:10343000342D68616C2F73746D3332663478785F25
:1034400068616C5F7263632E6300000061626F727B
:103450007428292C2065786974696E672E2E2E00D9
:103460006173736572745F706172616D2829206683
:1034700061696C65643A2066696C65202225732257
:103480002C206C696E652025640A0000537461630A
:103490006B206672616D653A0A0000002052302090
:1034A0003D2020253038580A0000000020523120ED
:1034B0003D2020253038580A0000000020523220DC
:1034C0003D2020253038580A0000000020523320CB
:1034D0003D2020253038580A0000000020523132AB
:1034E000203D20253038580A00000000204C522092
:1034F0003D2020253038580A00000000205043208D
:103500003D2020253038580A00000000205053523A
:10351000203D20253038580A000000004653522F25
:103520004641523A0A0000002043465352203D20B3
:1035300020253038580A00002048465352203D20AC
:1035400020253038580A00002044465352203D20A0
:1035500020253038580A00002041465352203D2093
:1035600020253038580A0000204D4D464152203D5C
:1035700020253038580A00002042464152203D2084
:1035800020253038580A00004D6973630A00000096
:10359000204C522F4558435F52455455524E3D20C2
:1035A000253038580A0000005B4861726446617536
:1035B0006C745D0A000000005B4275734661756CB7
:1035C000745D0A005B55736167654661756C745D77
:1035D0000A000000000000000000000001020304D7
:1035E000060708093132333435363738392A302363
:1035F000544F20534D415254205041524B494E4755
:1036000020000000464952535420435553544F4D17
:1036100045522000454E544552204944203A20004E
:103620005345434F4E4420435553544F4D4552202C
:1036300000000000494E56414C4944210000000062
:10364000544849524420435553544F4D455220004D
:103650004C4F4144494E470053554343455353460D
:10366000554C000057454C434F4D45004341525384
:10367000203A200046524545203A20004741524119
:1036800047452049532046554C4C20004341525356
:1036900020494E53494445202100000057524F4EC7
:1036A000472050415353574F52440000434152204A
:1036B0004E4F54204845524520210000232D302BE9
:1036C0002000686C4C006566674546470030313223
:1036D000333435363738394142434445460030317A
:0F36E000323334353637383961626364656600DA
:1036F0007856341284000020000000000024F400FA
:10370000030000001800002000000000000000007E
:1037100000000000000000000000000000000000A9
:103720000000000000000000000000000000000099
:103730000000000000000000000000000000000089
:103740000000000000000000000000000000000079
:103750000000000000000000000000000000000069
:0C376000000000000000000032547698C9
:040000050800019559
:00000001FF
